:020000040000FA
:0400000007EF00F016
:0A000800318288ED07F01EEF07F0CB
:100800000002070830050736000B0713120100002D
:10081000010200000103003010080002020900007C
:10082000000C0000000F00000000010000020100A9
:100830000003010000FFFF010000019011010127EA
:1008400002FFFF01000201BD01FFFF0100030100E3
:100850002D81020E00FFFF010000020000010200D6
:10086000000003000001030707020306060503005A
:10087000000603000D070306070803050009030728
:10088000000C0300000D030A00100200001102EF2B
:10089000001202000013028F010004003101040164
:1008A000000404000000050000010500000205002E
:1008B00000030500000405000005050000100010FD
:1008C0000011000006200002000700730100CFEFB6
:1008D00004F02E502A262A28D8B471EF04F073EFC2
:1008E00004F07BEF04F02A50D8A479EF04F07BEFFA
:1008F00004F07FEF04F0FF0E2E02F3502E6E2A500C
:10090000D8A485EF04F087EF04F0DEEF04F0620E68
:100910002B6EDEEF04F02D5029262928D8B493EF52
:1009200004F095EF04F09DEF04F02950D8A49BEF5C
:1009300004F09DEF04F0A1EF04F0FF0E2D02F35040
:100940002D6E2950D8A4A7EF04F0A9EF04F0DEEF34
:1009500004F0720E2B6EDEEF04F02C5028262828AF
:10096000D8B4B5EF04F0B7EF04F0BFEF04F02850AF
:10097000D8A4BDEF04F0BFEF04F0C3EF04F0FF0E06
:100980002C02F3502C6E2850D8A4C9EF04F0CBEF02
:1009900004F0DEEF04F0670E2B6EDEEF04F02B5058
:1009A000620AD8B4ADEF04F0050AD8B48BEF04F0B6
:1009B000150AD8B469EF04F0DEEF04F026C00AF09F
:1009C00027C00BF024C00CF025C00DF029C001F0A9
:1009D00028C002F02A50B5EC06F001C00EF002C0AB
:1009E0000FF0FFEC06F030502626000E30BEFF0E52
:1009F00027222F502426000E2FBEFF0E2522265020
:100A00002710D8B406EF05F008EF05F012EF05F057
:100A1000EF0E26182710D8A410EF05F012EF05F0FE
:100A200016EF05F0FF0E3002F350306E2450251003
:100A3000D8B41DEF05F01FEF05F02AEF05F08F0E7B
:100A4000241806E12504D8A428EF05F02AEF05F0C4
:100A50002EEF05F0FF0E2F02F3502F6E12000A50FA
:100A6000166E09C017F0020E026E020E016E09C06A
:100A700003F00AC004F03BEC07F00B06000E0C5A22
:100A80000D5A0E5A82900BC00FF00CC010F00DC022
:100A900011F00EC012F0030E53EF05F0D890123291
:100AA000113210320F32E82E4EEF05F00FC013F066
:100AB00010C014F017501618D8A461EF05F063EFBA
:100AC00005F0B6EF05F075EF05F0829C828C829CF4
:100AD000828C829C828C829C828C829C828C829C66
:100AE000828C829C828C829C828C1306D8A01406F5
:100AF000132806E11428D8A480EF05F082EF05F052
:100B000065EF05F00B50030B156E8BEF05F0829C23
:100B1000828C829C828C15061528D8A492EF05F051
:100B200094EF05F087EF05F0D9EF05F016C081FFCF
:100B3000829C828C17C081FF829C828C16C081FFB0
:100B4000829C828C17C081FF829C828C16C081FFA0
:100B5000829C828C17C081FF829C828C16C081FF90
:100B6000829C828C17C081FF829C828C1306D8A045
:100B70001406132806E11428D8A4C1EF05F0C3EF2A
:100B800005F096EF05F00B50030B156ED0EF05F056
:100B900016C081FF829C828C17C081FF829C828C50
:100BA00015061528D8A4D7EF05F0D9EF05F0C8EF42
:100BB00005F0828012006BEC07F0070E1B6E170E1B
:100BC0001A6E6A0EE82EFED71A2EFCD71B2EFAD705
:100BD00000D0000E236E000E226E000E1F6E660EF9
:100BE0001E6E37EF06F0D8902234F66E2334F76E7F
:100BF000010EF626080EF7220900F5CF20F00A00B4
:100C0000F5CF21F0224A232AD8902234F66E2334DD
:100C1000F76E010EF626080EF7220900F5CF1CF03C
:100C20000A00F5CF1DF0224A232A202806E12128B8
:100C3000D8A41DEF06F01FEF06F02DEF06F0070E0B
:100C40001B6E170E1A6E6A0EE82EFED71A2EFCD7F0
:100C50001B2EFAD700D037EF06F020C001F021C0DC
:100C600002F01CC003F01DC004F03BEC07F01E5066
:100C7000221807E11F502318D8A441EF06F043EFD4
:100C800006F0F3EF05F058EC07F0000E196E000EB9
:100C9000186EDCEC06F01200020E026E100E016EF1
:100CA00009C003F00AC004F03BEC07F0020E026E2C
:100CB000110E016E0DC003F00EC004F03BEC07F006
:100CC000020E026E120E016E0BC003F00CC004F097
:100CD0003BEC07F0020E026E130E016E0FC003F024
:100CE00010C004F03BEC07F0020E026E000E016E25
:100CF00009C003F00AC004F03BEC07F0020E026EDC
:100D0000010E016E0FC003F010C004F03BEC07F0C1
:100D10001200D39E700ED312FC0ED3169B8EE00EE3
:100D20009B16040E026E0C0E016E340EE82EFED7DA
:100D3000012EFCD7022EFAD76D966F863E0E926E6C
:100D4000000E806E000E896EF18E000E936E000E06
:100D5000816E000E8A6E300E946E000E826E000E52
:100D60008B6E9D96F29CF29E1200096E0150FC0B58
:100D7000036E046AD89003360436D89003360436DE
:100D8000D8900336043609C005F0F80E0516055054
:100D9000076E066A035006120450071202C008F0DC
:100DA000D8900832D8900832D890083208500610EF
:100DB000016E0750026E1200020E026E000E016EEE
:100DC000000E046E000E036E3BEC07F0020E026E86
:100DD000010E016E000E046E000E036E3BEC07F078
:100DE00018C009F019C00AF0000E0B6E770E0C6ED9
:100DF000010E0D6E000E0E6E2FEC05F01200020EAD
:100E0000026E000E016E0AC003F00BC004F03BEC52
:100E100007F0020E026E010E016E0CC003F00DC051
:100E200004F03BEC07F0020E026E020E016E0EC0E3
:100E300003F00FC004F03BEC07F012000A0EF66E50
:100E40000F0EF76E000EF86E00EE2BF010EE06F0AF
:100E50000900F5CFEEFFE550E150FAE100EE24F095
:100E6000070EEE6AE806FDE131903192000EF86E51
:100E700000017BEF07F0829082920250056E01C064
:100E800006F005C081FF829C828C06C081FF829C97
:100E9000828C82820450076E03C008F007C081FF75
:100EA000829C828C08C081FF829C828C828012008E
:100EB000000E0A6E000E096E000E0C6E000E0B6E18
:100EC000000E0E6EEF0E0D6E010E106E8F0E0F6E79
:100ED0004CEC06F01200000E936E8280828C828EA3
:100EE0008294100E016E940EE82EFED7012EFCD7D0
:100EF00000D08284120089EC06F0DBEC05F067EC90
:100F000004F07FEF07F007EF00F07201010101012B
:060F100006003192110001
:020000040020DA
:08000000FFFFFFFFFFFFFFFF00
:020000040030CA
:0E000000280E011EFF0180FF0FC00FE00F4011
:00000001FF
